{
  "transactions": [
    {
      "hash": "0xaee52ed634a369eedccb58677e6725eb8cbde88ed0d7f5818dfc11927a838aa6",
      "transactionType": "CALL",
      "contractName": null,
      "contractAddress": "0xa3e7317E591D5A0F1c605be1b3aC4D2ae56104d6",
      "function": null,
      "arguments": null,
      "transaction": {
        "type": "0x02",
        "from": "0x702ca8967b88eb11596bc0c6d747bd5f00b3430a",
        "to": "0xa3e7317e591d5a0f1c605be1b3ac4d2ae56104d6",
        "gas": "0x685a8",
        "value": "0x0",
        "data": "0xdfc86b17000000000000000000000000478f3476358eb166cb7ade4666d04fbddb56c407",
        "nonce": "0xcb",
        "accessList": []
      },
      "additionalContracts": [
        {
          "transactionType": "CREATE",
          "address": "0xB5C8A96A7d78a9167Ec94AB3E804AE56A8dafff2",
          "initCode": "0x608060405234801561001057600080fd5b506040516101df3803806101df8339818101604052602081101561003357600080fd5b5051600181905533600090815260208190526040902055610186806100596000396000f3fe608060405234801561001057600080fd5b50600436106100415760003560e01c806318160ddd1461004657806370a0823114610060578063a9059cbb14610093575b600080fd5b61004e6100e0565b60408051918252519081900360200190f35b61004e6004803603602081101561007657600080fd5b503573ffffffffffffffffffffffffffffffffffffffff166100e6565b6100cc600480360360408110156100a957600080fd5b5073ffffffffffffffffffffffffffffffffffffffff813516906020013561010e565b604080519115158252519081900360200190f35b60015481565b73ffffffffffffffffffffffffffffffffffffffff1660009081526020819052604090205490565b336000908152602081905260408082208054849003905573ffffffffffffffffffffffffffffffffffffffff939093168152919091208054909101905560019056fea264697066735822122073d92c69f29bca68bd558e0e14ee935d1a5c63094268430b301ebb12b5a5a10764736f6c634300060c00330000000000000000000000000000000000000000000000000000000001406f40"
        }
      ],
      "isFixedGasLimit": false
    },
    {
      "hash": "0xbcfc0173c35258f3958e64223afc31f91331e176cb3db10a463d865e508c1533",
      "transactionType": "CALL",
      "contractName": null,
      "contractAddress": "0xB5C8A96A7d78a9167Ec94AB3E804AE56A8dafff2",
      "function": "transfer(address,uint256)",
      "arguments": [
        "0xB5C8A96A7d78a9167Ec94AB3E804AE56A8dafff2",
        "21"
      ],
      "transaction": {
        "type": "0x02",
        "from": "0x702ca8967b88eb11596bc0c6d747bd5f00b3430a",
        "to": "0xb5c8a96a7d78a9167ec94ab3e804ae56a8dafff2",
        "gas": "0x10922",
        "value": "0x0",
        "data": "0xa9059cbb000000000000000000000000b5c8a96a7d78a9167ec94ab3e804ae56a8dafff20000000000000000000000000000000000000000000000000000000000000015",
        "nonce": "0xcc",
        "accessList": []
      },
      "additionalContracts": [],
      "isFixedGasLimit": false
    },
    {
      "hash": "0x5445ccd56011aaebf96eb7df9fcf848771ffa1f400d6daea3022572c869ee37c",
      "transactionType": "CALL",
      "contractName": null,
      "contractAddress": "0xa3e7317E591D5A0F1c605be1b3aC4D2ae56104d6",
      "function": null,
      "arguments": null,
      "transaction": {
        "type": "0x02",
        "from": "0x702ca8967b88eb11596bc0c6d747bd5f00b3430a",
        "to": "0xa3e7317e591d5a0f1c605be1b3ac4d2ae56104d6",
        "gas": "0x2d687",
        "value": "0x0",
        "data": "0xc882d7c2000000000000000000000000b5c8a96a7d78a9167ec94ab3e804ae56a8dafff2",
        "nonce": "0xcd",
        "accessList": []
      },
      "additionalContracts": [],
      "isFixedGasLimit": false
    }
  ],
  "receipts": [
    {
      "transactionHash": "0xaee52ed634a369eedccb58677e6725eb8cbde88ed0d7f5818dfc11927a838aa6",
      "transactionIndex": "0x8",
      "blockHash": "0x99efac1b38e7ceefcf62bf2f26357a1eaccb8d7d71f42465a4d0e74ca06c0272",
      "blockNumber": "0x553b37",
      "from": "0x702CA8967B88eb11596Bc0C6D747BD5f00b3430a",
      "to": "0xa3e7317E591D5A0F1c605be1b3aC4D2ae56104d6",
      "cumulativeGasUsed": "0xd7255",
      "gasUsed": "0x4b8ee",
      "contractAddress": null,
      "logs": [
        {
          "address": "0xa3e7317E591D5A0F1c605be1b3aC4D2ae56104d6",
          "topics": [
            "0x8be8bd7b4324b3d47aca5c3f64cb70e8f645e6fe94da668699951658f6384179",
            "0x000000000000000000000000702ca8967b88eb11596bc0c6d747bd5f00b3430a",
            "0x000000000000000000000000b5c8a96a7d78a9167ec94ab3e804ae56a8dafff2",
            "0x000000000000000000000000478f3476358eb166cb7ade4666d04fbddb56c407"
          ],
          "data": "0x",
          "blockHash": "0x99efac1b38e7ceefcf62bf2f26357a1eaccb8d7d71f42465a4d0e74ca06c0272",
          "blockNumber": "0x553b37",
          "transactionHash": "0xaee52ed634a369eedccb58677e6725eb8cbde88ed0d7f5818dfc11927a838aa6",
          "transactionIndex": "0x8",
          "logIndex": "0x6",
          "removed": false
        }
      ],
      "status": "0x1",
      "logsBloom": "0x00000000000000000000000000000000000000000010000000000000000000000000000000000000000000000000000000000000000000000000000200000000000020200000010001000000000000000000000000000000000000000000000000000000000000000000000000000000000000000000000000000000080000000000008000000000000000008000000000000000000000000000000000000000000020000000000000000000000000000000000010000000000000000000000000000000000000000000000000000002000000000000000000000000000400000000000000000000000000000000001080000000000000000000000000000000",
      "type": "0x2",
      "effectiveGasPrice": "0x2156b4318"
    },
    {
      "transactionHash": "0xbcfc0173c35258f3958e64223afc31f91331e176cb3db10a463d865e508c1533",
      "transactionIndex": "0x9",
      "blockHash": "0x99efac1b38e7ceefcf62bf2f26357a1eaccb8d7d71f42465a4d0e74ca06c0272",
      "blockNumber": "0x553b37",
      "from": "0x702CA8967B88eb11596Bc0C6D747BD5f00b3430a",
      "to": "0xB5C8A96A7d78a9167Ec94AB3E804AE56A8dafff2",
      "cumulativeGasUsed": "0xe3249",
      "gasUsed": "0xbff4",
      "contractAddress": null,
      "logs": [],
      "status": "0x1",
      "logsBloom": "0x00000000000000000000000000000000000000000000000000000000000000000000000000000000000000000000000000000000000000000000000000000000000000000000000000000000000000000000000000000000000000000000000000000000000000000000000000000000000000000000000000000000000000000000000000000000000000000000000000000000000000000000000000000000000000000000000000000000000000000000000000000000000000000000000000000000000000000000000000000000000000000000000000000000000000000000000000000000000000000000000000000000000000000000000000000000",
      "type": "0x2",
      "effectiveGasPrice": "0x2156b4318"
    },
    {
      "transactionHash": "0x5445ccd56011aaebf96eb7df9fcf848771ffa1f400d6daea3022572c869ee37c",
      "transactionIndex": "0xa",
      "blockHash": "0x99efac1b38e7ceefcf62bf2f26357a1eaccb8d7d71f42465a4d0e74ca06c0272",
      "blockNumber": "0x553b37",
      "from": "0x702CA8967B88eb11596Bc0C6D747BD5f00b3430a",
      "to": "0xa3e7317E591D5A0F1c605be1b3aC4D2ae56104d6",
      "cumulativeGasUsed": "0x104048",
      "gasUsed": "0x20dff",
      "contractAddress": null,
      "logs": [
        {
          "address": "0xa3e7317E591D5A0F1c605be1b3aC4D2ae56104d6",
          "topics": [
            "0x5038a30b900118d4e513ba62ebd647a96726a6f81b8fda73c21e9da45df5423d",
            "0x000000000000000000000000702ca8967b88eb11596bc0c6d747bd5f00b3430a",
            "0x000000000000000000000000b5c8a96a7d78a9167ec94ab3e804ae56a8dafff2",
            "0x000000000000000000000000478f3476358eb166cb7ade4666d04fbddb56c407"
          ],
          "data": "0x",
          "blockHash": "0x99efac1b38e7ceefcf62bf2f26357a1eaccb8d7d71f42465a4d0e74ca06c0272",
          "blockNumber": "0x553b37",
          "transactionHash": "0x5445ccd56011aaebf96eb7df9fcf848771ffa1f400d6daea3022572c869ee37c",
          "transactionIndex": "0xa",
          "logIndex": "0x7",
          "removed": false
        }
      ],
      "status": "0x1",
      "logsBloom": "0x00000000000000000000000000000000000000000000000000000000000000000000000000000000000000000000000000000000000000000000000200000000000020200000010001000000000000000000000000000000000000080000000000000000000000000000000000000000000000000000000000000000080000000000008000000000000000008000000000000000000000000000000000000000000020000000000000000000000000000000000010000000000000000000000000000000000000400000000000000002000000000000000000000000000000000000000000200000000000000000001000000000000000000000000000000000",
      "type": "0x2",
      "effectiveGasPrice": "0x2156b4318"
    }
  ],
  "libraries": [],
  "pending": [],
  "returns": {},
  "timestamp": 1711725109,
  "chain": 11155111,
  "commit": "725d3b2"
}